:020000040800F2
:1000000008130024AD02000801590008ED4C000857
:10001000FD5800085F080008D570000800000000C7
:10002000000000000000000000000000635C000809
:10003000630800080000000005590008655C00081E
:10004000CB020008CB020008CB020008CB0200085C
:10005000CB020008CB020008CB020008CB0200084C
:10006000CB020008CB020008CB020008CB0200083C
:10007000CB020008CB020008CB020008CB0200082C
:10008000CB020008CB020008CB020008CB0200081C
:10009000CB020008CB020008CB020008CB0200080C
:1000A000CB020008CB020008CB020008CB020008FC
:1000B000CB020008CB020008CB020008CB020008EC
:1000C000CB020008CB020008CB020008CB020008DC
:1000D000CB020008C5700008CB020008CB02000864
:1000E000CB020008CB02000800000000CB02000891
:1000F000CB020008CB020008CB020008CB020008AC
:10010000CB020008CB020008CB020008CB0200089B
:10011000CB020008CB020008CB020008CB0200088B
:10012000CB020008CB020008CB020008CB0200087B
:10013000CB020008CB020008CB020008CB0200086B
:1001400000000000000000000000000000000000AF
:10015000CB020008CB020008CB020008CB0200084B
:10016000CB020008CB020008CB020008CB0200083B
:10017000CB020008CB020008CB0200080000000000
:10018000CB020008CB020008CB020008CB0200081B
:10019000CB020008CB020008CB020008CB0200080B
:1001A000CB020008CB020008CB020008CB020008FB
:1001B000CB020008CB020008CB020008CB020008EB
:1001C000CB020008CB020008CB020008CB020008DB
:1001D000CB020008CB020008CB020008CB020008CB
:1001E000CB020008CB020008CB020008CB020008BB
:1001F000CB020008CB020008CB020008CB020008AB
:10020000CB020008CB020008CB020008CB0200089A
:10021000CB020008CB020008CB020008CB0200088A
:10022000CB020008CB020008CB020008000000004F
:10023000CB020008CB02000800000000CB0200083F
:10024000CB020008CB020008CB020008CB0200085A
:10025000CB020008CB020008CB020008CB0200084A
:10026000CB020008CB020008CB020008CB0200083A
:10027000CB020008CB020008CB02000800000000FF
:10028000CB020008CB020008CB02000800000000EF
:1002900000000000CB020008DFF80CD000F05EFA8E
:1002A000004800474D7A000808130024074880479B
:1002B0000748804707480047FEE7FEE7FEE7FEE7FE
:1002C000FEE7FEE7FEE7FEE7FEE7FEE76D08000853
:1002D0003D5D0008990200082DE9F05F0546002009
:1002E00092469B4688460646814640241BE02846A7
:1002F00041464746224600F069F853465A46C01A1E
:10030000914110D311461846224600F050F82D1A9C
:1003100067EB01084F4622460120002100F047F814
:1003200017EB00094E41201EA4F10104DFDC484612
:1003300031462A464346BDE8F09F40EA01039B0749
:1003400003D009E008C9121F08C0042AFAD203E04A
:1003500011F8013B00F8013B521EF9D27047D2B2AE
:1003600001E000F8012B491EFBD270470022F6E79E
:1003700010B513460A4604461946FFF7F0FF20461B
:1003800010BD30B50B46014600202022012409E0B3
:1003900021FA02F59D4205D303FA02F5491B04FA3E
:1003A00002F52844151EA2F10102F1DC30BD202A1D
:1003B00004DB203A00FA02F1002070479140C2F1BC
:1003C000200320FA03F3194390407047202A04DBEE
:1003D000203A21FA02F00021704721FA02F3D040BE
:1003E000C2F1200291400843194670472DE9FE4FA3
:1003F000804681EA0300C00F0C46009021F00041C6
:1004000023F00045B8EB0200A94105D24046214641
:1004100090461C460B46024623F00040104347D04E
:10042000270DC7F30A00C3F30A510290401A019046
:1004300040286BDAC3F3130040F4801B0098924607
:1004400020B10023D2EB030A63EB0B0B0198594652
:10045000C0F140025046FFF7AAFF06460D4650463F
:100460005946019A00F08CF910EB08006141002414
:1004700087EA115284EAE7731A4340D0009A62B3C4
:10048000019A012A4FEA075215DC001B61EB0201B9
:100490004FF0004202EA0752CDE90042001C41F54C
:1004A000801132462B4600F08CF903B0BDE8F08F86
:1004B00040462146F9E7001B61EB0201001C41F5B3
:1004C000801300185B412018A2F5001747EB0301C9
:1004D00040EAD570B6196D4111E06D084FEA360655
:1004E00045EAC0754FEA0752001B61EB0201001C90
:1004F00041F5801149084FEA300000195141324658
:100500002B4603B0BDE8F04F00F04CB90098012233
:1005100040000023D0EB020263EBE0730098214619
:100520004FEAE074B8EB000061EB0401E9E783F007
:1005300000435BE781F0004158E72DE9FE4F81EA77
:10054000030404F0004421F0004100944FF0000B3C
:1005500023F0004350EA01045ED052EA03045BD06A
:10056000C3F30A54C1F30A552C44A4F2F3340194A2
:10057000A0FB0254C1F3130141F48011C3F3130330
:1005800043F4801301FB024400FB034E840A970AE4
:1005900044EA815447EA8357A4FB076802958D0A11
:1005A00005FB07854FEA932C04FB0C542705029D9D
:1005B0004FEA065847EA1637B5EB08056EEB070C0D
:1005C000870E920E47EA811742EA8312A7FB0201C7
:1005D000B6EB0B0164EB00042B0D43EA0C335E1801
:1005E00044EB1C50DA465146E7FB0201C5F3130405
:1005F0004FEA0B3343EA14534FEA0432019C43EAB7
:100600000603A4F10C040294009CCDE900B400F0B0
:10061000D8F803B0BDE8F08F00200146F9E72DE9D6
:10062000F04D81EA030404F0004B21F0004514462C
:100630004FF0000A23F0004150EA050220D054EAAE
:1006400001021DD0C5F30A570246C5F31303C1F3D7
:100650001300C1F30A5640F4801543F48013A7EB4E
:100660000608101BD64608F2FD3873EB050002D3CE
:1006700008F1010801E092185B41B8F1000F03DABC
:1006800000200146BDE8F08D00204FF480110646A1
:1006900084460EE0171B73EB050705D3121B63EBB3
:1006A000050306434CEA010C49084FEA3000921852
:1006B0005B4150EA0107EDD152EA030012D082EA11
:1006C000040083EA0501084305D0101BAB4106D2A4
:1006D0000122002306E000224FF0004302E06FF009
:1006E000010253101AEB06004CEB085110EB0A0004
:1006F00041EB0B01BDE8F04D00F054B8C1F30A52D4
:10070000C1F3130140F2FF3341F480119A4202DA3F
:1007100000200146704740F233439A42A2F233422E
:1007200002DC5242FFF752BEFFF741BE30B5041E55
:1007300071F1000404DB4FF00044404264EB01011E
:10074000141E73F1000405DB1C464FF000435242B7
:1007500063EB0403994208BF904230BD064C074D3D
:1007600006E0E06840F0010394E807009847103481
:10077000AC42F6D3FFF794FDEC3901080C3A0108BE
:10078000202A06DBCB17203A41FA02F043EAE07355
:1007900006E041FA02F3D040C2F120029140084342
:1007A0001946704710B5141E73F1000408DA401C96
:1007B00041F1000192185B411A4301D120F0010080
:1007C00010BD2DE9F04D92469B4611B1B1FA81F270
:1007D00002E0B0FA80F220329046FFF7E8FD0446CE
:1007E0000F4640EA0A0041EA0B0153465A460843C5
:1007F00013D0114653EA010019D0C8F14002504607
:10080000FFF7E4FD05460E46504659464246FFF7BF
:10081000CEFD084305D0012004E020463946BDE85E
:10082000F08D0020054346EAE0762C4337430A98D2
:100830006305E40AA0EB08000022FD0A44EA4754DD
:100840000A3002D500200146E9E701051019694187
:10085000DDE9084500196941BDE8F04DA2E700BF98
:10086000FEE7704772B600BFFEE700000748006869
:1008700040F002000549086000BF044808380068DD
:1008800000F400500028F8D0704700000C480258CF
:1008900002460868B0B9D1E901031843CB68184390
:1008A0000B6918434B6918438B691843CB6918438C
:1008B0000B6A18434B6A184313686FF30E0318430F
:1008C000106019E0D1E9070318434B6A1843136815
:1008D00023F4F84318431060D1E901031843CB68AF
:1008E00018430B6918434B6918438B6918435368C5
:1008F0006FF30E03184350600020704702465069A2
:1009000043F6FE73984340EA41005061002070476F
:1009100010B50346D1E9000420438C68641E40EA08
:100920004410CC6840EA44201C696FF3150420434E
:100930001861002010BD000030B50346FAB9086800
:10094000401E4C68641E40EA04148868401E44EA55
:100950000024C868401E44EA0034088A401E44EA65
:100960000044888A401E44EA0054087E401E44EA3F
:1009700000609C6804F070442043986022E0C868DE
:10098000401E0403888A401E44EA00509C680E4DB5
:100990002C40204398600868401E4C68641E40EA62
:1009A00004148868401E44EA0024088A401E44EA71
:1009B0000044087E401E44EA0060DC6804F0704495
:1009C0002043D860002030BDFF0F0FFF2DE9F0411C
:1009D00007460D4616464FF0010805F047FD38461C
:1009E00000F068F8E0B905F041FDBB2005F0B8FD66
:1009F000012815D100240DE0681EA04204D100207A
:100A000005F004FD305503E0012005F0FFFC3055F2
:100A1000601CC4B2AC42EFDB05F04CFD4FF00008A7
:100A200005F048FD4046BDE8F081000010B505F036
:100A3000E1FD00220821114800F08AFE0122102168
:100A40000F4800F085FE42F2107005F0A5FC002270
:100A500010210B4800F07CFE0A4805F09DFC0122A5
:100A60001021074800F074FE074805F095FC05F0DA
:100A7000ADFD44F6206005F08FFC10BD0018025853
:100A8000001C0258F04902003057050070B50646B8
:100A90000C4605F0EBFC304600F00CF828B9204677
:100AA00005F05EFD012800D0012505F003FD0025BD
:100AB000284670BD70B5044605F0D8FCBA2005F094
:100AC0004FFD01280AD1201205F04AFD012805D169
:100AD000E0B205F045FD012800D00125002528469B
:100AE00070BD000010B504460CB9012010BD94F88B
:100AF000610028B9002084F86000204600F036F834
:100B0000022084F86100E16960680843216809688F
:100B1000154A1140084321680860A169A06808438C
:100B20002168496B40F207129143084321684863EA
:100B30002068006C6FF30F00E168084321680864C7
:100B4000208A0105A08A41EA40502168496B21F4BE
:100B5000401108432168486300206066012084F842
:100B600061000020C2E70000BFFFF8FF08B5094A96
:100B7000016891420DD100BF0749096841F0100199
:100B8000054A11601146096801F01001009100BF8B
:100B900000BF08BD00100052D44402582DE9F041B6
:100BA000044600F0E1FD804614B90120BDE8F08163
:100BB00094F83500022808D08020606500BF00202E
:100BC00084F8340000BF0120F0E7FE492068884225
:100BD00049D0FC4918312068884244D0F949303165
:100BE000206888423FD0F7494831206888423AD08F
:100BF000F44960312068884235D0F2497831206864
:100C0000884230D0EF499031206888422BD0ED499E
:100C1000A8312068884226D0EB492068884222D03B
:100C2000E9491831206888421DD0E74930312068F1
:100C3000884218D0E44948312068884213D0E249FC
:100C40006031206888420ED0DF49783120688842C0
:100C500009D0DD4990312068884204D0DA49A831B2
:100C60002068884201D1012000E0002068B120689E
:100C7000006820F01E00216808602068406920F0AC
:100C8000800021684861256806E02068006820F03F
:100C90000E00216808602568CA492068884270D023
:100CA000C8491831206888426BD0C6493031206865
:100CB000884266D0C34948312068884261D0C14922
:100CC0006031206888425CD0BE4978312068884213
:100CD00057D0BC4990312068884252D0B949A831D8
:100CE000206888424DD0B8492068884249D0B6492A
:100CF00018312068884244D0B34930312068884296
:100D00003FD0B1494831206888423AD0AE4960317D
:100D10002068884235D0AC4978312068884230D08C
:100D2000A9499031206888422BD0A749A831206872
:100D3000884226D0A5492068884222D0A349143190
:100D4000206888421DD0A14928312068884218D0E7
:100D50009E493C312068884213D09C49503120681C
:100D600088420ED0994964312068884209D0974959
:100D700078312068884204D094498C3120688842B8
:100D800001D1012000E0002028B1206E006820F48D
:100D90008070216E08608B492068884249D089495B
:100DA00018312068884244D0864930312068884212
:100DB0003FD084494831206888423AD08149603127
:100DC0002068884235D07F4978312068884230D009
:100DD0007C499031206888422BD07A49A83120681C
:100DE000884226D078492068884222D07649183136
:100DF000206888421DD0744930312068884218D05C
:100E0000714948312068884213D06F4960312068A9
:100E100088420ED06C4978312068884209D06A49EE
:100E200090312068884204D06749A8312068884200
:100E300006D12068006820F001002168086005E004
:100E40002068006820F001002168086011E000F0CF
:100E50008BFCA0EB080005280BD92020606503203F
:100E600084F8350000BF002084F8340000BF012062
:100E70009CE6286800F001000028E8D1514920686C
:100E8000884249D04F4918312068884244D04D49A2
:100E90003031206888423FD04A4948312068884232
:100EA0003AD0484960312068884235D04549783188
:100EB0002068884230D043499031206888422BD046
:100EC0004049A8312068884226D03F49206888429E
:100ED00022D03D491831206888421DD03A4930312E
:100EE0002068884218D0384948312068884213D099
:100EF00035496031206888420ED033497831206806
:100F0000884209D0304990312068884204D02E4967
:100F1000A8312068884201D1012000E0002040B1C2
:100F2000A66D94F85C0000F01F013F208840B0607F
:100F300007E0A76D94F85C0000F01F0101208840D5
:100F4000786020492068884276D01E491831206890
:100F5000884271D01B493031206888426CD01949D1
:100F600048312068884267D016496031206888423D
:100F700062D014497831206888425DD0114990319F
:100F80002068884258D00F49A8312068884253D041
:100F90000D49206888424FD00B491831206888429B
:100FA0004AD0094930312068884245D00649483145
:100FB0002068884240D004496031206888423BD094
:100FC000014905E010000240100402400854025894
:100FD0007831206888422FD02549206888422BD05C
:100FE000234918312068884226D022492068884247
:100FF00022D020491431206888421DD01D49283153
:101000002068884218D01B493C312068884213D0A0
:1010100018495031206888420ED016496431206842
:10102000884209D0134978312068884204D0114998
:101030008C312068884201D1012000E0002068B195
:10104000D4E919104860E06E40B1E06E006820F409
:101050008070E16E0860D4E91C104860012084F8BB
:10106000350000BF002084F8340000BF00BF9DE5BC
:10107000A00402400854025870B504460CB901207F
:1010800070BD94F83500022803D0802060650120EF
:10109000F6E7DC492068884249D0DA4918312068EF
:1010A000884244D0D7493031206888423FD0D54962
:1010B0004831206888423AD0D2496031206888425D
:1010C00035D0D04978312068884230D0CD49903130
:1010D000206888422BD0CB49A8312068884226D08E
:1010E000C9492068884222D0C749183120688842FF
:1010F0001DD0C54930312068884218D0C2494831D6
:101100002068884213D0C0496031206888420ED0E0
:10111000BD4978312068884209D0BB4990312068A8
:10112000884204D0B849A8312068884201D1012002
:1011300000E00020F0B3042084F83500B1492068B5
:1011400088424BD0AF4918312068884246D0AD491B
:1011500030312068884241D0AA494831206888420D
:101160003CD0A84960312068884237D0A549783101
:101170002068884232D0A3499031206888422DD01F
:10118000A049A8312068884228D09F492068884219
:1011900024D09D491831206888421FD09A493031A7
:1011A000206888421AD0984948312068884215D072
:1011B000954900E020E06031206888420ED09249D5
:1011C00078312068884209D08F4990312068884260
:1011D00004D08D49A8312068884206D12068006873
:1011E00020F001002168086009E12068006820F013
:1011F00001002168086002E12068006820F00E000C
:10120000216808607F492068884249D07D491831AB
:101210002068884244D07B493031206888423FD0E2
:1012200078494831206888423AD076496031206850
:10123000884235D0734978312068884230D071496E
:101240009031206888422BD06E49A83120688842AE
:1012500026D06D492068884222D06B491831206819
:1012600088421DD0684930312068884218D06649CC
:1012700048312068884213D0634960312068884231
:101280000ED0614978312068884209D05E4990319A
:101290002068884204D05C49A8312068884206D181
:1012A0002068006820F001002168086005E02068DF
:1012B000006820F0010021680860524920688842D7
:1012C00070D050491831206888426BD04D49303178
:1012D0002068884266D04B4948312068884261D0F6
:1012E00048496031206888425CD04649783120689E
:1012F000884257D0434990312068884252D04149B2
:10130000A831206888424DD03F492068884249D0A2
:101310003D4918312068884244D03B49303120682B
:1013200088423FD038494831206888423AD036490F
:1013300060312068884235D033497831206888424E
:1013400030D031499031206888422BD02E49A831C5
:101350002068884226D02D492068884222D02B4917
:101360001431206888421DD02849283120688842DD
:1013700018D026493C312068884213D02349503187
:10138000206888420ED0214964312068884209D003
:101390001E4978312068884204D01C498C3120686D
:1013A000884201D1012000E00020D8B1206E006801
:1013B00020F48070216E0860A56D94F85C0000F048
:1013C0001F01012088406860D4E919104860E06E70
:1013D00040B1E06E006820F48070E16E0860D4E9EE
:1013E0001C104860012084F8350000BF002084F8FC
:1013F000340000BF206D10B12046216D88470020C9
:101400003EE600001000024010040240085402585A
:1014100070B5044600F0A8F906462546681C10B1D0
:1014200004480078054400BF00F09EF9801BA842E4
:10143000FAD370BD1000002400B5B7B0142132A853
:10144000FEF794FF3848006808B137B000BD0120AE
:1014500035490860C02102A8FEF788FF4FF080716F
:101460000020CDE90210149002A800F0EBFE08B1B4
:10147000FFF7F8F900BF2D48006840F480502B4971
:1014800008600846006800F48050019000BF00BF6B
:101490004FF63F003290022033900020349003201A
:1014A00035900C20369032A9214800F04BF82C20C2
:1014B00032900220339000203490032035900C208D
:1014C000369032A91B4800F03DF848F237103290B0
:1014D0000220339000203490032035900C20369069
:1014E00032A9154800F02EF84FF683703290022092
:1014F000339000203490032035900C20369032A990
:101500000E4800F01FF84CF2037032900220339026
:1015100000203490032035900C20369032A90848E2
:1015200000F010F800BF90E700000024D4440258F7
:1015300000140258001C02580018025800100258EB
:10154000000C0258F8B502460B4600216F4DD7E05B
:1015500001278F401E6806EA0704002C72D01E790E
:1015600006F00306012E04D01E7906F00306022EB3
:1015700013D190684F000326BE40B0434F00DE6891
:10158000BE4030439060506801268E40B0431E79C3
:10159000C6F300168E40304350601E7906F00306F5
:1015A000032E09D0D0684F000326BE40B0434F0041
:1015B0009E68BE403043D0601E7906F00306022EBE
:1015C00013D1CF0802F1200656F827004E07F70E78
:1015D0000F26BE40B0434F07FF0E1E69BE4030438A
:1015E000CF0802F1200646F8270010684F000326B6
:1015F000BE40B0431E7906F003064F00BE403043A4
:1016000010605E6806F44036002E78D000BF404E71
:10161000366846F002063E4F3E603E46366806F0AB
:101620000206009600BF00BF3A4E8F0856F827000A
:101630008E07370F0F26BE40B043374EB24202D15D
:1016400000262EE05BE0354EB24201D1012628E0B3
:10165000334EB24201D1022623E0324EB24201D1D2
:1016600003261EE0304EB24201D1042619E02F4E6F
:10167000B24201D1052614E02D4EB24201D1062618
:101680000FE02C4EB24201D107260AE02A4EB242A8
:1016900001D1082605E0294EB24201D1092600E019
:1016A0000A268F073F0FBE4030431A4E8F0846F878
:1016B00027004FF0B0463068A0435E6806F48016FD
:1016C00006B120434FF0B04630607068A0435E68BA
:1016D00006F4001606B120434FF0B046706068680B
:1016E000A0435E6806F4003606B1204368602868AF
:1016F000A0435E6806F4803606B120432860491C8A
:101700001E68CE40002E7FF423AFF8BD8000005845
:10171000F44402580804005800000258000402581B
:1017200000080258000C0258001002580014025819
:1017300000180258001C02580020025800240258C9
:10174000024613690B400BB1012000E000207047F6
:101750000AB1816101E00B048361704701480068B0
:10176000000C70470010005C0148006870470000E2
:101770000800002403480068034909780844014927
:1017800008607047080000241000002410B50320F2
:1017900000F0D2FA01F0E4FD10490968C1F3032119
:1017A0000F4A515C01F01F0120FA01F40B48006858
:1017B00000F00F001146085C00F01F0024FA00F052
:1017C00008490860084804600F2000F00FF808B1CD
:1017D000012010BD00F04CFA0020FAE7184402582E
:1017E000307D0008180000241400002470B5044661
:1017F0001148007808B9012070BD0F4800784FF4F7
:101800007A71B1FBF0F00D490968B1FBF0F528469B
:1018100002F057FB08B10120EEE7102C07D200229E
:101820002146501E00F04AFA0548046001E00120FC
:10183000E2E70020E0E7000010000024140000248C
:101840000C00002470B504460E46154600BF94F8FF
:10185000A000012801D1022070BD012084F8A00061
:1018600000BF022084F8A10005EB850101EBC50251
:1018700004F1380101EB820034223146FEF75DFDB0
:101880002A463146204603F03FFD01202168486288
:1018900084F8A10000BF002084F8A00000BF00BFB2
:1018A000DAE770B504460CB9012070BD94F8A100C8
:1018B00028B9002084F8A000204600F057F8022044
:1018C00084F8A1002068806920F070402168886158
:1018D000D4E901010843E16808432169084321680C
:1018E0008969084321688861A08A0504A0692843A2
:1018F00021688860A08B0504206A28432168C8609D
:10190000A08C0504A06A284321680861A08D050405
:10191000206B28432168486194F83500050294F84B
:10192000360006042068C06A00F07F402168C86263
:1019300046EA050094F8341008432168C96A084350
:101940002168C8622068406B40F006002168486347
:101950002068806940F00100216888610020C4F897
:10196000A400012084F8A10000209EE710B5B8B0C3
:101970000446142132A8FEF7F9FCC02102A8FEF7A4
:10198000F5FC8049206888427ED141040020CDE9E1
:10199000021020200C90C0210D9102210E910F9178
:1019A0000F2110914FF4406111910101129100211A
:1019B000139102A800F046FC08B1FEF753FF00BFE8
:1019C0007148006840F008006F49086008460068E8
:1019D00000F00800019000BF00BF00BF081F0068B2
:1019E00040F01000091F08600846006800F0100071
:1019F000019000BF00BF00BF0846006840F480703F
:101A000008600846006800F48070019000BF00BFC5
:101A100000BF0846006840F02000086008460068E3
:101A200000F02000019000BF00BF00BF0846006822
:101A300040F0010008600846006800F001000190D5
:101A400000BF00BF00BF0846006840F0800008608B
:101A50000846006800F08000019000BF00BF00BF92
:101A60000846006840F0400008600846006800F042
:101A70004000019000BF00BF00BF0846006840F072
:101A800008000860084600E07AE0006800F00800FE
:101A9000019000BF00BF60203290022033900020F0
:101AA0003490032035900E20369032A93748FFF746
:101AB00049FD40F2F76032900220339000203490CC
:101AC000032035900E20369032A93148FFF73AFDB9
:101AD0004FF4806032900220339000203490032035
:101AE00035900E20369032A92A48FFF72BFD0420AE
:101AF00032900220339000203490032035900E2045
:101B0000369032A92448FFF71DFD4FF47F403290F4
:101B10000220339000203490032035900E20369020
:101B200032A91E48FFF70EFD47F2C0003290022096
:101B3000339000203490032035900E20369032A947
:101B40001748FFF7FFFC4FF480703290022033906B
:101B500000203490032035900D20369032A90E4895
:101B6000FFF7F0FC402032900220339000203490A8
:101B7000032035900E20369032A90A48FFF7E2FC88
:101B800038B010BD00100050E44402580010025854
:101B9000002002580014025800000258001C02588D
:101BA00000180258000C02584178154A1160144977
:101BB0000831096821F00101114A08321160121F31
:101BC00041681160017B0907C27A41EA0261827AA9
:101BD00041EAC241427B41EA8241827B41EA424181
:101BE000C27B41EA0241427A41EA0221027A41EA99
:101BF000420102781143024A083211607047000026
:101C000098ED00E000BF00BF00BFBFF35F8F00BFD3
:101C100000BF00BF0548006820F480300349086019
:101C200000200249703108607047000024ED00E098
:101C300040F001010D4A11600C497039096841F406
:101C400080310A4A703A116000BF00BF00BFBFF385
:101C50004F8F00BF00BF00BF00BF00BF00BFBFF37A
:101C60006F8F00BF00BF00BF7047000094ED00E021
:101C700008B500BF0648006840F00200044908604B
:101C80000846006800F00200009000BF00BF08BDD9
:101C9000F44402580146084600280DDB00BF00BF8F
:101CA00000F01F0301229A4043099B0003F1E02347
:101CB000C3F8002100BF00BF00BF70472DE9F05FEF
:101CC00080460D46164605F02BFA074639462A4649
:101CD000334601F00700C0F1070ABAF1040F02D938
:101CE0004FF0040A01E0C0F1070AD14600F1040AEE
:101CF000BAF1070F02D24FF0000A01E0A0F1030A87
:101D0000D4464FF0010A0AFA09FAAAF1010A0AEACE
:101D1000020A0AFA0CFA4FF0010B0BFA0CFBABF1BA
:101D2000010B0BEA030B4AEA0B042146404605F07F
:101D3000FFF9BDE8F09F000000BF00F00702064B6E
:101D400019684FF6FF031940044B0B4343EA022185
:101D5000014B196000BF70470CED00E00000FA0570
:101D600070B5044615480068C0F3800048B91348B0
:101D7000006800F00700A04201D0012070BD0020E3
:101D8000FCE70E48006820F0070020430B4908607C
:101D9000FFF7EAFC054607E0FFF7E6FC401BB0F55D
:101DA0007A7F01D90120E9E7044808380068C0F3C8
:101DB00040300028F0D00020E0E700000C48025836
:101DC00010B501F083FA05490968C1F30211044A0C
:101DD000515C01F01F01C84010BD000020440258B2
:101DE000307D000870B50146844D2D6805F0030371
:101DF000824D2D68C5F30530804D2D1D2D68C5F32E
:101E000000147E4D14352D68C5F3CC0515FB04F583
:101E100001EE105AB8EE411AF0EE410A00286FD0D8
:101E200023B1012B4ED0022B6BD16BE0734D283DBB
:101E30002D68C5F340153DB3704D283D2D68C5F3A1
:101E4000C1066F4D25FA06F201EE102AF8EE411A8E
:101E500001EE100AB8EE411A81EE812A9FED691A4F
:101E6000C0EE811A654D10352D68C5F3080501EEE9
:101E7000105AB8EE411A31EE811AF7EE001A31EE1F
:101E8000211A22EE010A1CE001EE100AB8EE411AF6
:101E9000DFED5D1A81EE812A9FED5A1AC0EE811A9C
:101EA000564D10352D68C5F3080501EE105AB8EEF1
:101EB000411A31EE811AF7EE001A31EE211A22EEA4
:101EC000010A5BE001EE100AB8EE411ADFED4F1A8D
:101ED00081EE812A9FED4B1AC0EE811A474D1035D5
:101EE0002D68C5F3080501EE105AB8EE411A31EE1F
:101EF000811AF7EE001A31EE211A22EE010A3DE0B6
:101F000077E01DE001EE100AB8EE411A9FED402A7D
:101F1000C2EE011A9FED3B1A80EE812A374D103533
:101F20002D68C5F3080501EE105AB8EE411A32EEDD
:101F3000011AB7EE002A31EE021A21EE810A1DE0E5
:101F400001EE100AB8EE411ADFED301A81EE812A57
:101F50009FED2C1AC0EE811A284D10352D68C5F35F
:101F6000080501EE105AB8EE411A31EE811AF7EE6B
:101F7000001A31EE211A22EE010A00BF00BF1F4DE8
:101F800010352D68C5F3462501EE105AB8EE411AFA
:101F9000F7EE001A31EE211AC0EE011ABCEEE11A7A
:101FA00081ED001A154D10352D68C5F3064501EE7B
:101FB000105AB8EE411AF7EE001A31EE211AC0EEAF
:101FC000011ABCEEE11A81ED011A0C4D10352D6895
:101FD000C5F3066501EE105AB8EE411AF7EE001A85
:101FE00031EE211AC0EE011ABCEEE11A81ED021A9F
:101FF00003E000250D604D608D6070BD28440258DF
:102000000090D003000000460024744C0024744A61
:1020100020BCBE4B70B50146844D2D6805F003030E
:10202000824D2D68C5F30550804D2D1D2D68C5F3DB
:1020300000247E4D1C352D68C5F3CC0515FB04F539
:1020400001EE105AB8EE411AF0EE410A00286FD0A6
:1020500023B1012B4ED0022B6BD16BE0734D283D89
:102060002D68C5F340153DB3704D283D2D68C5F36F
:10207000C1066F4D25FA06F201EE102AF8EE411A5C
:1020800001EE100AB8EE411A81EE812A9FED691A1D
:10209000C0EE811A654D18352D68C5F3080501EEAF
:1020A000105AB8EE411A31EE811AF7EE001A31EEED
:1020B000211A22EE010A1CE001EE100AB8EE411AC4
:1020C000DFED5D1A81EE812A9FED5A1AC0EE811A6A
:1020D000564D18352D68C5F3080501EE105AB8EEB7
:1020E000411A31EE811AF7EE001A31EE211A22EE72
:1020F000010A5BE001EE100AB8EE411ADFED4F1A5B
:1021000081EE812A9FED4B1AC0EE811A474D18359A
:102110002D68C5F3080501EE105AB8EE411A31EEEC
:10212000811AF7EE001A31EE211A22EE010A3DE083
:1021300077E01DE001EE100AB8EE411A9FED402A4B
:10214000C2EE011A9FED3B1A80EE812A374D1835F9
:102150002D68C5F3080501EE105AB8EE411A32EEAB
:10216000011AB7EE002A31EE021A21EE810A1DE0B3
:1021700001EE100AB8EE411ADFED301A81EE812A25
:102180009FED2C1AC0EE811A284D18352D68C5F325
:10219000080501EE105AB8EE411A31EE811AF7EE39
:1021A000001A31EE211A22EE010A00BF00BF1F4DB6
:1021B00018352D68C5F3462501EE105AB8EE411AC0
:1021C000F7EE001A31EE211AC0EE011ABCEEE11A48
:1021D00081ED001A154D18352D68C5F3064501EE41
:1021E000105AB8EE411AF7EE001A31EE211AC0EE7D
:1021F000011ABCEEE11A81ED011A0C4D18352D685B
:10220000C5F3066501EE105AB8EE411AF7EE001A52
:1022100031EE211AC0EE011ABCEEE11A81ED021A6C
:1022200003E000250D604D608D6070BD28440258AC
:102230000090D003000000460024744C0024744A2F
:1022400020BCBE4B2DE9F04104460025A8464FF0C6
:102250000062D4E90010114000201346594040406C
:10226000014331D1A06E48B1B0F5801F0DD0B0F55B
:10227000001F11D0B0F5401F16D114E0F9480068D6
:1022800040F40030F749086010E0022104F1080032
:1022900003F03AFB054609E0022104F1280003F0AF
:1022A000E5FB054602E001E0012500BF00BF55B98E
:1022B000EC482430006820F44010A16E0843E9493E
:1022C0002431086000E0A8464FF48073D4E9001080
:1022D000194000205940404001432ED1A06D0528EF
:1022E0001BD2DFE800F0030A11181900DD4800686E
:1022F00040F40030DB49086011E0002104F10800DF
:1023000003F002FB05460AE0002104F1280003F077
:10231000ADFB054603E002E001E0012500BF00BF80
:1023200055B9D0482430006820F00700A16D08435B
:10233000CC492431086000E0A8464FF40073D4E98A
:1023400000101940002059404040014334D1E06D55
:10235000802818D003DC40B140281DD10CE0C028F3
:1023600018D0B0F5807F17D115E0BE48006840F462
:102370000030BC49086011E0002104F1080003F0BE
:10238000C3FA05460AE0002104F1280003F06EFBC1
:10239000054603E002E001E0012500BF00BF55B99A
:1023A000B0482430006820F4E070E16D0843AD4986
:1023B0002431086000E0A8464FF48063D4E900109F
:1023C0001940002059404040014339D1D4F8A800B9
:1023D000B0F5800F1AD004DC50B1B0F5001F1ED14B
:1023E0000DE0B0F5C00F18D0B0F5000F17D115E013
:1023F0009C48006840F400309A49086011E00021D0
:1024000004F1080003F080FA05460AE0002104F117
:10241000280003F02BFB054603E002E001E0012564
:1024200000BF00BF5DB98F482C30006820F4600009
:10243000D4F8A81008438B492C31086000E0A84666
:102440004FF40062D4E900101140002013465940B7
:102450004040014339D1D4F8AC00B0F1007F1AD02C
:1024600004DC50B1B0F1807F1ED10DE0B0F1407FAF
:1024700018D0B0F1806F17D115E07A48006840F4A9
:1024800000307849086011E0002104F1080003F0F1
:102490003BFA05460AE0002104F1280003F0E6FAC1
:1024A000054603E002E001E0012500BF00BF5DB981
:1024B0006C482C30006820F0E060D4F8AC10084381
:1024C00068492C31086000E0A8464FF00073D4E959
:1024D00000011840002158404940084328D1E06CD1
:1024E000A8B1102804D0202809D0302810D10DE040
:1024F0005C48006840F400305A4908600AE0022154
:1025000004F1080003F000FA054603E002E001E0F0
:10251000012500BF00BF55B952482030006820F0A7
:102520003000E16C08434F492031086000E0A846C4
:102530004FF48053D4E90010194000205940404026
:10254000014337D1206EB0F5005F1AD004DC50B1E2
:10255000B0F5805F1ED10DE0B0F5405F18D0B0F54A
:10256000804F17D115E03F48006840F400303D49E6
:10257000086011E0002104F1080003F0C5F90546E8
:102580000AE0002104F1280003F070FA054603E098
:1025900002E001E0012500BF00BF55B931482430F9
:1025A000006820F4E040216E08432E492431086081
:1025B00000E0A8464FF40053D4E900101940002071
:1025C00059404040014335D1606EB0F5403F1ED0C8
:1025D00007DC68B1B0F5803F0BD0B0F5003F19D1F2
:1025E0000EE0B0F5802F13D0B0F5A02F12D110E07F
:1025F00012E0012104F1080003F086F905460BE022
:10260000012104F1280003F031FA054604E003E05B
:1026100002E001E0012500BF00BF55B91148243098
:10262000006820F4E020616E08430E492431086000
:1026300000E0A8464FF48043D4E90001184000218F
:1026400058404940084337D1D4F8B000B0F1405F5A
:1026500020D009DC78B1B0F1805F0DD0B0F1005F1F
:102660001BD110E02C440258B0F1804F13D0B0F1D0
:10267000A04F12D110E012E0012104F1080003F094
:1026800043F905460BE0012104F1280003F0EEF9BF
:10269000054604E003E002E001E0012500BF00BFC1
:1026A0004DB9FE48006820F0E040D4F8B01008436F
:1026B000FA49086000E0A8464FF40042D4E900104F
:1026C00011400020134659404040014329D1206F5A
:1026D000B0B1B0F1805F03D0B0F1005F11D108E07C
:1026E000EE482C38006840F40030EC492C39086082
:1026F00009E0012104F1080003F006F9054602E0B3
:1027000001E0012500BF00BF55B9E4480838006862
:1027100020F04050216F0843E0490839086000E08C
:10272000A8464FF08072D4E90010114000201346F3
:102730005940404001432AD1A06CB8B1012804D0CF
:1027400002280BD0032812D10FE0D4482C3800689F
:1027500040F40030D1492C3908600AE0022104F12C
:10276000080003F0D1F8054603E002E001E001258E
:1027700000BF00BF55B9C9480C38006820F00300FD
:10278000A16C0843C5490C39086000E0A8464FF425
:102790008002D4E90001104000211346584049400E
:1027A00008437DD1BE48006840F48070BC49086091
:1027B000FEF7DAFF064606E0FEF7D6FF801B642828
:1027C00001D9032505E0B648006800F480700028B0
:1027D000F2D000BF85BBB1481830006800F44070EB
:1027E000B4F8B41001F44071884213D0AB481830EB
:1027F000006820F44077A9481830006840F4803021
:10280000A649183108600846006820F48030086046
:1028100008460760D4F8B400B0F5807F15D1FEF704
:10282000A3FF064609E0FEF79FFF801B41F28831B7
:10283000884202D9032507E038E09848183000683C
:10284000C0F340000028EED000BF55BB00BFB4F875
:10285000B40000F44070B0F5407F0ED18F48483886
:10286000006820F47C518F4AD4F8B400104041EA4B
:1028700010108A494839086007E0884848380068DD
:1028800020F47C5085494839086084481830006835
:10289000B4F8B410C1F30B0108438049183101E0CA
:1028A00005E001E0086002E0A84600E0A846012239
:1028B000D4E9000110400021134658404940084324
:1028C00030D1E06F18281AD005DC48B1082808D0AC
:1028D000102817D10CE0202812D0282812D110E09F
:1028E00012E0012104F1080003F00EF805460BE0A8
:1028F000012104F1280003F0B9F8054604E003E0E3
:1029000002E001E0012500BF00BF55B96348001F88
:10291000006820F03800E16F08436049091F086033
:1029200000E0A8460222D4E900011040002113462D
:1029300058404940084329D1A06F062816D2DFE845
:1029400000F003040B12131412E0012104F108003B
:1029500002F0DAFF05460BE0012104F1280003F044
:1029600085F8054604E003E002E001E0012500BF30
:1029700000BF55B94948001F006820F00700A16F4B
:1029800008434649091F086000E0A8460423D4E92B
:1029900000101940002059404040014329D1D4F88B
:1029A0009400062816D2DFE800F003040B1213147B
:1029B00012E0012104F1080002F0A6FF05460BE039
:1029C000012104F1280003F051F8054604E003E07A
:1029D00002E001E0012500BF00BF4DB92F480068AB
:1029E00020F00700D4F8941008432C49086000E058
:1029F000A8462023D4E9000118400021584049404E
:102A0000084337D1D4F89000B0F1405F1ED007DC06
:102A100068B1B0F1805F0BD0B0F1005F19D10EE06A
:102A2000B0F1804F13D0B0F1A04F12D110E012E0FE
:102A3000002104F1080002F067FF05460BE00221C7
:102A400004F1280003F012F8054604E003E002E078
:102A500001E0012500BF00BF5DB91048001F0068FC
:102A600020F0E040D4F8901008430C49091F08609A
:102A700000E0A8464023D4E9001019400020594046
:102A8000404001433CD1D4F89C00B0F5406F25D0C4
:102A90000EDCA0B1B0F5806F12D005E058440258AA
:102AA00000480258FFFCFF0FB0F5006F19D10EE08F
:102AB000B0F5805F13D0B0F5A05F12D110E012E046
:102AC000002104F1080002F01FFF05460BE002217F
:102AD00004F1280002F0CAFF054604E003E002E02A
:102AE00001E0012500BF00BF4DB9FE48006820F499
:102AF000E050D4F89C100843FA49086000E0A8466A
:102B00008023D4E90010194000205940404001437F
:102B100035D1D4F8A000B0F5C04F1ED007DC68B1A5
:102B2000B0F5005F0BD0B0F5804F19D10EE0B0F5D5
:102B3000004F13D0B0F5204F12D110E012E0002169
:102B400004F1080002F0E0FE05460BE0022104F16A
:102B5000280002F08BFF054604E003E002E001E0FC
:102B6000012500BF00BF4DB9DE48006820F4604079
:102B7000D4F8A0100843DB49086000E0A846082309
:102B8000D4E900101940002059404040014317D1BA
:102B9000D4F88400B0F5805F07D1022104F1280049
:102BA00002F064FF08B14FF00108CE48001F006832
:102BB00020F44050D4F884100843CA49091F086023
:102BC0001023D4E90010194000205940404001432F
:102BD00015D1D4F89800B0F5807F07D1022104F117
:102BE000280002F043FF08B14FF00108BD4800681B
:102BF00020F44070D4F898100843BA4908604FF4A4
:102C00000022D4E9000110400021134658404940F9
:102C1000084327D1D4F8A40030B1B0F5803F0AD0E2
:102C2000B0F5003F0FD10DE0002104F1080002F0E3
:102C30006BFE054609E0022104F1280002F016FFB0
:102C4000054602E001E0012500BF00BF4DB9A548DF
:102C5000006820F44030D4F8A4100843A14908606B
:102C600000E0A8464FF48023D4E900011840002179
:102C70005840494008432DD1D4F88800B0F5801F52
:102C800006D0B0F5001F0CD0B0F5401F11D10FE0F9
:102C900094482C38006840F4003092492C39086080
:102CA00009E0012104F1280002F0E0FE054602E0FF
:102CB00001E0012500BF00BF5DB98A48001F006820
:102CC00020F44010D4F8881008438649091F086092
:102CD00000E0A8464FF48032D4E900011040002102
:102CE000134658404940084325D1206D18B1B0F52E
:102CF000803F10D108E07B482C38006840F4003059
:102D000078492C39086008E0022104F1080002F03B
:102D1000FBFD054601E0012500BF00BF55B9714824
:102D20000C38006820F48030216D08436D490C395F
:102D3000086000E0A8464FF00052D4E900101140AE
:102D40000020134659404040014307D1022104F1BD
:102D5000280002F08BFE08B14FF001084FF4003359
:102D6000D4E900011840002158404940084329D1C6
:102D7000D4F88000A0B1B0F5807F06D0B0F5007F18
:102D80000CD0B0F5407F0CD109E056482C380068D3
:102D900040F4003053492C39086004E003E002E0BD
:102DA00001E0012500BF00BF5DB94E48001F00686B
:102DB00020F44070D4F8801008434A49091F086085
:102DC00000E0A8464FF48012D4E900101140002022
:102DD000134659404040014309D142480838006831
:102DE00020F00040616F08433E49083908604FF009
:102DF0008052D4E900101140002013465940404051
:102E000001430AD137484838006820F48040D4F89C
:102E1000B81008433349483908604FF40012D4E928
:102E2000001011400020134659404040014309D191
:102E30002C480838006820F08070E16E084329496A
:102E4000083908604FF08042D4E90010114000209A
:102E5000134659404040014311D100BF2148483832
:102E6000006820F400401F4948390860084600689F
:102E7000D4F8BC1008431B494839086000BF4FF024
:102E80000042D4E900101140002013465940404050
:102E9000014309D113480C38006820F04050616D9F
:102EA000084310490C3908604FF40002D4E90010BF
:102EB0001140002013465940404001430AD10948BF
:102EC000001F006820F44000D4F88C100843054926
:102ED000091F086001230021606818400122494051
:102EE000504001E058440258014306D104F1080063
:102EF00002F00AFD054605B1A846022200216068DD
:102F0000104049405040014307D1012104F108001D
:102F100002F0FAFC054605B1A846042300206168CA
:102F20001940042240405140084307D1022104F1D6
:102F3000080002F0E9FC054605B1A8460823002177
:102F400060681840082249405040014306D104F10E
:102F5000280002F08BFD054605B1A846102200218D
:102F60006068104049405040014307D1012104F1FD
:102F7000280002F07BFD054605B1A846202200206E
:102F80006168114040405140084307D1022104F1DB
:102F9000280002F06BFD054605B1A846B8F1000F08
:102FA00002D10020BDE8F0810120FBE72DE9F041CE
:102FB00004460D4614B90120BDE8F081BD48006803
:102FC00000F00F00A8420ED2BA48006820F00F00AF
:102FD0002843B84908600846006800F00F00A8427E
:102FE00001D00120E8E7207800F0040004280ED189
:102FF000B1492069096801F07001884207D9AE48DB
:10300000006820F0700021690843AB49086020780F
:1030100000F00800082811D1A749091D6069096856
:1030200001F07001884209D9A348001D006820F012
:10303000700061690843A049091D0860207800F00C
:103040001000102811D19C49091DA069096801F4DC
:10305000E061884209D99848001D006820F4E060CA
:10306000A16908439449091D0860207800F02000F8
:10307000202811D190490831E069096801F07001F8
:10308000884209D98C480830006820F07000E16956
:103090000843894908310860207800F002000228BE
:1030A0000ED18549E068096801F00F01884207D90F
:1030B0008148006820F00F00E16808437E490860FD
:1030C000207800F00100002850D07B48006820F4F0
:1030D0007060A1680843784908606068022807D1D9
:1030E000754818380068C0F34040F8B9012063E71C
:1030F0006068032807D1704818380068C0F3406042
:10310000A0B9012058E76068012807D16A4818383B
:103110000068C0F3002048B901204DE76648183820
:103120000068C0F3800008B9012045E7624808380C
:10313000006820F00700616808435F4908390860AB
:10314000FEF712FB064608E0FEF70EFB801B41F27D
:103150008831884201D903202EE757480838006893
:1031600000F038006168B0EBC10FEDD1207800F0BD
:10317000020002280ED15049E068096801F00F01F1
:10318000884207D24C48006820F00F00E1680843ED
:10319000494908604748006800F00F00A8420ED96E
:1031A0004448006820F00F00284342490860084660
:1031B000006800F00F00A84201D00120FCE6207852
:1031C00000F0040004280ED13B492069096801F091
:1031D0007001884207D23848006820F070002169E9
:1031E000084335490860207800F00800082811D10C
:1031F0003149091D6069096801F07001884209D2EE
:103200002D48001D006820F07000616908432A49BC
:10321000091D0860207800F01000102811D12649FF
:10322000091DA069096801F4E061884209D22248B9
:10323000001D006820F4E060A16908431E49091DD3
:103240000860207800F02000202811D11A490831A8
:10325000E069096801F07001884209D21648083017
:10326000006820F07000E1690843134908310860E4
:1032700000F076F810490968C1F303210F4A515C48
:1032800001F01F0120FA01F70B48006800F00F0061
:103290001146085C00F01F0027FA00F0084908609A
:1032A0000848076008480068FEF7A0FA80464046D4
:1032B00082E600000020005218440258307D0008C9
:1032C00018000024140000240C00002410B500F0A5
:1032D00047F80D490968C1F303210C4A515C01F01C
:1032E0001F0120FA01F40848006800F00F001146A1
:1032F000085C00F01F0024FA00F00549086005484A
:1033000004600846006810BD18440258307D00086B
:10331000180000241400002400B5FFF7D7FF05496A
:103320000968C1F30211044A515C01F01F01C84051
:1033300000BD00001C440258307D000800B5FFF7B6
:10334000C5FF05490968C1F30221044A515C01F037
:103350001F01C84000BD00001C440258307D000819
:10336000F0B5824E366806F0380636B1082E15D014
:10337000102E15D0182E7DD114E07C4E103E3668EC
:10338000C6F3401646B1794E103E3668C6F3C10703
:10339000774E26FA07F000E07548E5E07548E3E06F
:1033A0007548E1E0714E1836366806F003046F4E3A
:1033B00018363668C6F305116C4E1C36366806F0B2
:1033C00001056A4E24363668C6F3CC0616FB05F6B0
:1033D00001EE106AB8EE410A002971D024B1012C27
:1033E00050D0022C6DD16DE0604E103E3668C6F3B1
:1033F00040163EB35D4E103E3668C6F3C1075C4EC4
:1034000026FA07F301EE103AF8EE411A01EE101A0F
:10341000B8EE411A81EE812A9FED581AC0EE011ACA
:10342000524E20363668C6F3080601EE106AB8EE32
:10343000411A31EE811AF7EE001A31EE211A62EECE
:10344000010A1EE001EE101AB8EE411ADFED4C1A27
:1034500081EE812A9FED491AC0EE011A434E2036B3
:103460003668C6F3080601EE106AB8EE411A31EE6E
:10347000811A00E076E0F7EE001A31EE211A62EED2
:10348000010A5BE001EE101AB8EE411A9FED3D2AE9
:10349000C2EE011A9FED391A80EE012A334E203612
:1034A0003668C6F3080601EE106AB8EE411A32EE2D
:1034B000011AB7EE002A31EE021A61EE810A3DE0F0
:1034C0004EE01DE001EE101AB8EE411ADFED2E1AA3
:1034D00081EE812A9FED291AC0EE011A234E203673
:1034E0003668C6F3080601EE106AB8EE411A31EEEE
:1034F000811AF7EE001A31EE211A62EE010A1DE080
:1035000001EE101AB8EE411A9FED1E2AC2EE011A02
:103510009FED1A1A80EE012A144E20363668C6F343
:10352000080601EE106AB8EE411A32EE011AB7EE43
:10353000002A31EE021A61EE810A00BF00BF0B4E75
:1035400020363668C6F34626721C01EE102AB8EE05
:10355000411AC0EE811ABCEEE11A11EE100A00E029
:10356000002001E0034800BF00BFF0BD1044025836
:103570000090D00300093D0040787D010000004626
:103580000024744C0024744A20BCBE4B2DE9F04743
:10359000044614B90120BDE8F087207800F001004E
:1035A000002870D0FA48006800F03808F848183051
:1035B000D0F80090B8F1100F06D0B8F1180F0FD165
:1035C00009F0030002280BD1F14810380068C0F35D
:1035D000404000286AD06068002867D10120DAE7FF
:1035E00000BF6068B0F5803F08D1E9481038006836
:1035F00040F48030E649103908602EE0606868B910
:10360000E3481038006820F48030E1491039086040
:103610000846006820F4802008601EE06068B0F56D
:10362000A02F0DD1DA481038006840F48020D84926
:10363000103908600846006840F4803008600CE0EB
:10364000D3481038006820F48030D1491039086020
:103650000846006820F48020086000BF606898B1C8
:10366000FEF782F8054606E0FEF77EF8401B642868
:1036700001D903208FE7C64810380068C0F34040E6
:103680000028F1D012E012E0FEF76EF8054606E0E1
:10369000FEF76AF8401B642801D903207BE7BC4889
:1036A00010380068C0F340400028F1D100BF2078F6
:1036B00000F00200022874D1B548006800F0380814
:1036C000B3481830D0F80090B8F1000F05D0B8F129
:1036D000180F56D109F00300D0BBAD481038006870
:1036E000C0F3800018B1E06808B9012053E7A8488A
:1036F0001038006820F01900E1680843A449103927
:103700000860FEF731F8054606E0FEF72DF8401B8D
:10371000022801D903203EE79D4810380068C0F315
:1037200080000028F1D000BFFEF718F841F2030135
:1037300088421AD8206940280BD195480C38006877
:1037400020F47C3040F4003091490C39086017E0D7
:1037500017E08F480C38006820F47C30216940EA7B
:1037600001308B490C3908600AE089480C38006840
:1037700020F0FE40217C40EA016085490C39086058
:1037800066E0E06888B382481038006820F01900CD
:10379000E16808437E4910390860FDF7E5FF0546FA
:1037A00007E056E0FDF7E0FF401B022801D90320A7
:1037B000F1E6774810380068C0F380000028F1D0A7
:1037C00000BFFDF7CBFF41F2030188421AD8206900
:1037D00040280BD16E480C38006820F47C3040F44F
:1037E00000306B490C39086017E017E068480C3866
:1037F000006820F47C30216940EA013064490C39CA
:1038000008600AE062480C38006820F0FE40217C25
:1038100040EA01605E490C39086019E05C481038E4
:10382000006820F001005A4910390860FDF79CFF3C
:10383000054606E0FDF798FF401B022801D903204A
:10384000A9E6534810380068C0F380000028F1D181
:1038500000BF207800F0100010287CD14C48006890
:1038600000F038084A481830D0F80090B8F1080F36
:1038700006D0B8F1180F3DD109F00300012839D165
:10388000434810380068C0F3002020B1E069802868
:1038900001D001207FE600BFFDF760FF41F2030188
:1038A00088421AD8206A20280AD139480C38006882
:1038B00020F0F84040F0804035490C39086018E0AD
:1038C00033480C38006820F0F84094F8201040EAA3
:1038D00081602F490C3908600BE02D48001F0068FB
:1038E00020F07C5094F8201040EA01602849091F1C
:1038F000086066E0E06978B325481038006840F059
:103900008000234910390860FDF72EFF054606E0C8
:10391000FDF72AFF401B022801D903203BE61C4883
:1039200010380068C0F300200028F1D000BFFDF778
:1039300015FF41F2030188421CD8206A20280CD1CF
:1039400013480C38006820F0F84040F080401049DF
:103950000C3908601AE035E01CE00D480C380068AE
:1039600020F0F84094F8201040EA816008490C39B2
:1039700008600BE00648001F006820F07C5094F8B7
:10398000201040EA01600249091F086019E00000A8
:1039900010440258FA48006820F08000F849086096
:1039A000FDF7E2FE054606E0FDF7DEFE401B0228BD
:1039B00001D90320EFE5F2480068C0F30020002899
:1039C000F2D100BF207800F00800082836D16069E5
:1039D000D0B1EB487430006840F00100E849743120
:1039E0000860FDF7C1FE054606E0FDF7BDFE401B81
:1039F000022801D90320CEE5E14874300068C0F305
:103A000040000028F1D019E0DD487430006820F053
:103A10000100DB4974310860FDF7A6FE054606E0AB
:103A2000FDF7A2FE401B022801D90320B3E5D448CC
:103A300074300068C0F340000028F1D1207800F015
:103A40002000202830D1A069B8B1CD48006840F4EA
:103A50008050CB490860FDF787FE054606E0FDF77C
:103A600083FE401B022801D9032094E5C448006866
:103A7000C0F340300028F2D016E0C148006820F4BE
:103A80008050BF490860FDF76FFE054606E0FDF770
:103A90006BFE401B022801D903207CE5B848006872
:103AA000C0F340300028F2D1207800F00400042850
:103AB0007DD1B448006840F48070B2490860FDF7D9
:103AC00053FE054606E0FDF74FFE401B642801D972
:103AD000032060E5AB48006800F480700028F2D055
:103AE00000BFA068012808D1A5487030006840F0E8
:103AF0000100A349703108602DE0A06868B9A048B2
:103B00007030006820F001009D497031086008465F
:103B1000006820F0040008601DE0A06805280DD1B1
:103B200097487030006840F0040095497031086093
:103B30000846006840F0010008600CE090487030D2
:103B4000006820F001008E49703108600846006866
:103B500020F00400086000BFA068A0B1FDF704FEDB
:103B6000054608E0FDF700FE401B41F2883188421F
:103B700001D903200FE5824870300068C0F340008F
:103B80000028EFD013E0FDF7EFFD054608E0FDF754
:103B9000EBFD401B41F28831884201D90320FAE451
:103BA000774870300068C0F340000028EFD1606AA9
:103BB00000287DD072481030006800F038001828C6
:103BC00077D0606A022875D16D48006820F0807057
:103BD0006B490860FDF7C8FD054606E0FDF7C4FD2A
:103BE000401B022801D90320D5E465480068C0F3D2
:103BF00040600028F2D100BFD4E90A1041EA001069
:103C00005F492831096840F2F332914308435C4927
:103C100028310860208E401EC0F30800616B491EE9
:103C20004FF47E4202EA41210843218F491ED2010E
:103C300002EA014108433C21095D491E120202EAE1
:103C4000016108434E493031086000BF081F006819
:103C500020F00100091F08604948343000684FF621
:103C6000F8718843A16C40EAC100454934310860CD
:103C700043482C30006820F00C00216C0843404978
:103C80002C3108600846006820F00200616C08438F
:103C90003B492C3108600846006840F480300860D9
:103CA0000846006840F4003008600846006802E0FA
:103CB00093E038E01FE040F4802008600846006888
:103CC00040F0010008602E48006840F080702C49E8
:103CD0000860FDF749FD054606E0FDF745FD401B80
:103CE000022801D9032056E425480068C0F340604B
:103CF0000028F2D071E02248006820F0807020494E
:103D00000860FDF731FD054606E0FDF72DFD401B7F
:103D1000022801D903203EE419480068C0F340603E
:103D20000028F2D159E0164828300768144830308E
:103D30000668606A012821D007F00301A06A814269
:103D40001CD1C7F30511E06A884217D1C6F30801F8
:103D5000206B401E814211D1606B401EC6F346218C
:103D600088420BD1A06B401EC6F30641884205D1A4
:103D7000E06B401EC6F30661884205D001200AE4CC
:103D8000004402580048025815480068C0F3CC07A8
:103D9000A06CB84221D012480838006820F0010019
:103DA0000F4908390860FDF7DFFC054600BFFDF745
:103DB000DBFC401BFBD00A4800684FF6F8718843D3
:103DC000A16C40EAC100064908600548083800684F
:103DD00040F0010002490839086000204AE4000070
:103DE0003444025870B504460D460CB9012070BD2C
:103DF00094F82C0028B9002084F82D00204600F00B
:103E000019F8022084F82C00211D2068FCF740FDE1
:103E10002946D4E90002FCF78FFD0548006840F010
:103E2000004003490860012084F82C000020DEE7F0
:103E30000040005210B50446FDF7FEFA10BD70B503
:103E400004460D4694F82C00022800D170BD94F869
:103E50002C0001280AD1022084F82C002946206871
:103E6000FCF74CFD012084F82C0001E00120EDE777
:103E70000020EBE72DE9F04104460E46174694F882
:103E80002C50022D02D10220BDE8F081012D01D07D
:103E9000052D12D1022084F82C003A4631462068C4
:103EA000FCF736FD3068022803D1052084F82C0089
:103EB00005E0012084F82C0001E00120E4E7002067
:103EC000E2E770B504462546681EB0F1807F01D355
:103ED00001200FE0681E4FF0E02148610F214FF0F4
:103EE000FF3003F025F900204FF0E0218861072022
:103EF0000861002070BD000030B502460B4600BFCF
:103F000092F83C00012801D1022030BD012082F846
:103F10003C0000BF022082F83D0010684168106834
:103F20008468214D1068A84203D0204D1068A84233
:103F300003D121F470015868014321F07001186821
:103F4000014310684160184D1068A8421BD01068EA
:103F5000B0F1804F17D0164D1068A84213D0154D00
:103F60001068A8420FD0144D1068A8420BD00F4D16
:103F70001068A84207D0114D1068A84203D0104D18
:103F80001068A84205D124F08004986804431068A2
:103F90008460012082F83D0000BF002082F83C00D0
:103FA00000BF00BFB1E70000000001400004014075
:103FB0000004004000080040000C004000180040D1
:103FC0000040014010B504460CB9012010BD94F822
:103FD0003D0028B9002084F83C00204600F02AF873
:103FE000022084F83D00211D206801F03BFF0120E4
:103FF00084F8480000BF84F83E0001213F200155AD
:1040000040200155412001554220015543200155D2
:1040100000BF00BF012084F8440045200155462020
:1040200001554720015500BF012084F83D000020C4
:10403000CCE7000008B5094A016891420DD100BFE4
:104040000749096841F04001054A116011460968B5
:1040500001F04001009100BF00BF08BD0018004002
:10406000E84402582DE9F04104460D46002700BF00
:1040700094F83C00012802D10220BDE8F081012023
:1040800084F83C0000BF022084F83D002068866868
:104090004048064026F47F462068866028687028DD
:1040A00026D00CDC00F00F01002966D10011072892
:1040B00063D2DFE800F0555657584B374100B0F156
:1040C000101F52D009DCB0F5805F10D0B0F5005F52
:1040D0001BD0B0F5801F50D146E0A0F580102038ED
:1040E000002843D0102842D0202846D140E046E0A6
:1040F000D5E902136A68206801F02FFF20688668FE
:1041000046F077062068866039E0D5E902136A68D0
:10411000206801F022FF2068806840F48040216818
:1041200088602CE0EA686968206802F0E1F85021B4
:10413000206801F01DFF22E0EA686968206802F04B
:10414000EAF86021206801F013FF18E0EA68696866
:10415000206802F0CDF84021206801F009FF0EE050
:1041600000BF00BF00BF00BF00BF00BF00BF00BF57
:104170002968206801F0FCFE01E0012700BF00BFB4
:10418000012084F83D0000BF002084F83C0000BFFF
:10419000384672E788FFCEFF10B586B0044614217A
:1041A00001A8FCF7E3F81049206888421AD100BF43
:1041B0000E48006840F080000C490860084600681E
:1041C00000F08000009000BF00BF4020019002205E
:1041D00002900020039004900220059001A9044859
:1041E000FDF7B0F906B010BD00180040E0440258D9
:1041F000001C02582DE9F04104460D4616460027E2
:1042000000BF94F83C00012802D10220BDE8F081F3
:10421000012084F83C0000BF0C2E51D005DC4EB1CB
:10422000042E1ED0082E7AD133E0102E60D0142E2A
:10423000F9D175E02946206801F0A6FE2068806962
:1042400040F00800216888612068806920F004003F
:10425000216888612068806929690843216888612C
:1042600078E02946206801F0E5FE2068806940F486
:104270000060216888612068806920F4806021687E
:10428000886120688069296940EA01202168886185
:1042900060E02946206801F027FF2068C06940F0EF
:1042A00008002168C8612068C06920F00400216806
:1042B000C8612068C069296908432168C86149E06C
:1042C0002946206801F06AFF2068C06940F4006058
:1042D0002168C8612068C06920F480602168C861D5
:1042E0002068C069296940EA01202168C86131E07D
:1042F0002946206801F08CFF2068406D40F00800DE
:10430000216848652068406D20F0040021684865F8
:104310002068406D29690843216848651AE017E064
:104320002946206801F0ACFF2068406D40F4006031
:10433000216848652068406D20F4806021684865E8
:104340002068406D296940EA01202168486501E044
:10435000012700BF00BF00BF002084F83C0000BF61
:10436000384653E710B504460CB9012010BD94F847
:104370003D0028B9002084F83C00204600F029F8D0
:10438000022084F83D00211D206801F06BFD012012
:1043900084F8480000BF84F83E0001213F20015509
:1043A000402001554120015542200155432001552F
:1043B00000BF00BF012084F844004520015546207D
:1043C00001554720015500BF012084F83D00002021
:1043D000CCE7704770B504460D4615B994F83E0019
:1043E00015E0042D02D13F20005D10E0082D02D120
:1043F0004020005D0BE00C2D02D14120005D06E065
:10440000102D02D14220005D01E04320005D012813
:1044100001D0012070BD1DB9022084F83E001AE0D1
:10442000042D03D102213F20015514E0082D03D1B2
:104430000221402001550EE00C2D03D10221412024
:10444000015508E0102D03D102214220015502E060
:1044500002214320015501222946206801F06CFD0C
:104460002B49206888420FD02A49206888420BD007
:1044700029492068884207D028492068884203D00B
:1044800027492068884201D1012000E0002028B19E
:104490002068406C40F40040216848641C49206852
:1044A00088421BD02068B0F1804F17D01D4920688A
:1044B000884213D01C49206888420FD01B492068CD
:1044C00088420BD013492068884207D018492068D9
:1044D000884203D010492068884210D12068806843
:1044E000144900EA0106062E0FD0B6F5803F0CD025
:1044F0002068006840F001002168086005E020683D
:10450000006840F0010021680860002082E7000098
:10451000000001400004014000400140004401400F
:10452000004801400004004000080040000C00402A
:104530000018004007000100014600BF91F8840008
:10454000012801D102207047012081F8840000BFBA
:104550002420C1F88800086802680868006820F014
:1045600001000B68186022F00052002048660868BD
:1045700002602020C1F8880000BF002081F884007C
:1045800000BF00BFDFE77047704770B504460D46B7
:1045900000BF94F88400012801D1022070BD0120E1
:1045A00084F8840000BF2420C4F8880020680668CE
:1045B0002068006820F00100216808602068806899
:1045C00020F06060284321688860204602F0E8F807
:1045D000206806602020C4F8880000BF002084F80E
:1045E000840000BF00BFD9E770B504460D4600BF88
:1045F00094F88400012801D1022070BD012084F8C4
:10460000840000BF2420C4F8880020680668206861
:10461000006820F00100216808602068806820F0B0
:104620006040284321688860204602F0B9F820687D
:1046300006602020C4F8880000BF002084F88400B1
:1046400000BF00BFD9E77047704770472DE9F047BA
:1046500004462068C569206806682068876840F6B7
:104660000F0005EA0009B9F1000F0FD105F0200095
:1046700060B106F0200010B907F0805030B1606FD3
:1046800010B12046616F8847BDE8F087B9F1000F8F
:104690007ED0F848384018B9F74830400028F7D0A5
:1046A00005F0010058B106F4807040B10120216886
:1046B0000862D4F8900040F00100C4F8900005F0C2
:1046C000020058B107F0010040B1022021680862E1
:1046D000D4F8900040F00400C4F8900005F0040005
:1046E00058B107F0010040B1042021680862D4F8F5
:1046F000900040F00200C4F8900005F0080070B18E
:1047000006F0200010B9DB48384040B1082021688D
:104710000862D4F8900040F00800C4F8900005F456
:10472000006060B106F0806048B14FF4006021681D
:104730000862D4F8900040F02000C4F89000D4F84B
:104740009000002852D005F0200050B106F0200063
:1047500010B907F0805020B1606F10B12046616F32
:104760008847D4F890A02068806800F04000402876
:1047700002D00AF0280070B3204602F039F9206810
:10478000806800F04000402826D100BF00BF00E054
:104790002DE02168083151E8001F21F04000216818
:1047A000083141E80002002AF1D100BFD4F88000AE
:1047B00068B1B248D4F880100865D4F88000FCF7DE
:1047C0005BFC98B1D4F88000016D88470EE020466C
:1047D000FFF73BFF0AE003E02046FFF736FF05E066
:1047E0002046FFF732FF0020C4F890004CE7E06E4F
:1047F00001287DD105F01000002879D006F01000C6
:104800000028FAD01020216808622068806800F033
:10481000400040286DD1D4F8800000689849884253
:104820006BD0D4F88000006895491831884264D074
:10483000D4F8800000689249303188425DD0D4F8C5
:10484000800000688E494831884256D0D4F88000F4
:1048500000688B49603188424FD0D4F880000068EE
:1048600087497831884248D0D4F88000006884496C
:104870009031884241D0D4F8800000688049A83146
:1048800088423AD0D4F8800000687E49884234D00B
:10489000D4F8800000687B49183188422DD0D4F8C4
:1048A0008000006877493031884226D0D4F88000F3
:1048B00000687449483188421FD0D4F880000068ED
:1048C00070496031884218D0D4F8800000686D4982
:1048D0007831884211D0D4F880000068694990315D
:1048E00088420AD0D4F8800000686649A83102E006
:1048F000CAE07BE001E0884204D1D4F8800000687F
:10490000406803E0D4F88000006840681FFA80F82F
:10491000B8F1000F58D0B4F85C00404554DDA4F85D
:104920005E80D4F88000C069B0F5807F40D000BFC1
:1049300000BF216851E8001F21F48070226842E81E
:1049400000010029F5D100BF00BF00BF2168083178
:1049500051E8001F21F001002168083141E8000200
:10496000002AF3D100BF00BF00BF2168083151E821
:10497000001F21F040002168083141E80002002AB0
:10498000F3D100BF2020C4F88C000020E06600BFF7
:1049900000BF216851E8001F21F01000226842E8A2
:1049A00000010029F5D100BFD4F88000FCF7F6F82B
:1049B00002202067B4F85C00B4F85E20801A81B24F
:1049C0002046FFF7E0FD10E0B4F85C0040450CD154
:1049D000D4F88000C069B0F5807F06D1022020673E
:1049E000B4F85C102046FFF7CEFD4DE634F85C0FBE
:1049F0006188401A1FFA80F860885C3CC8B3B8F13F
:104A0000000F36D000BF00BF216851E8001F21F41D
:104A10009070226842E800010029F5D100BF00BF74
:104A200000BF2168083151E8001F124AD24301EA51
:104A300002002168083141E80002002AF1D100BFDC
:104A40002020C4F88C000020E066606700BF00BF33
:104A5000216851E8001F21F01000226842E800019F
:104A60000029F5D100BF0220206741462046FFF70C
:104A70008AFD09E60100001020010004DB6900083E
:104A8000100002401004024005F4801050B107F4F9
:104A9000800038B14FF48010216808622046FFF78B
:104AA000D3FDF1E505F0800058B106F0800010B9A3
:104AB00007F4000028B1A06F10B12046A16F88470D
:104AC000E2E505F0400030B106F0400018B12046A4
:104AD00001F0C4FFD8E505F4000030B106F08040D5
:104AE00018B12046FFF7AFFDCEE505F0807030B17C
:104AF00006F0004018B12046FFF746FDC4E500BFB0
:104B0000C2E510B504460CB9012010BDA06900B182
:104B100000E000BFD4F8880028B9002084F88400A1
:104B2000204600F02BF82420C4F888002068006894
:104B300020F0010021680860A06A10B1204601F051
:104B40005BFE204601F0A2FF012800D1DDE72068CE
:104B5000406820F49040216848602068806820F018
:104B60002A00216888602068006840F00100216800
:104B70000860204601F0BCFEC7E7000010B5B8B0E1
:104B80000446142132A8FBF7F1FBC02102A8FBF771
:104B9000EDFB2249206888423ED101210020CDE969
:104BA0000210219002A8FDF74DFB08B1FBF75AFE59
:104BB00000BF1B48006840F0100019490860084613
:104BC000006800F01000019000BF00BF00BF144853
:104BD0001038006840F0010011491039086008469B
:104BE000006800F00100019000BF00BF4FF4C060FA
:104BF0003290022033900020349035900720369078
:104C000032A90848FCF79EFC002211462520FDF73A
:104C100055F82520FDF73EF838B010BD00100140D2
:104C2000F0440258000002582DE9F84F04460E46A1
:104C300017469946D4F88800202854D106B117B9F0
:104C40000120BDE8F88F00205434E0632120606328
:104C5000FCF78AFD824627806780543CA068B0F547
:104C6000805F04D1206910B90025B04602E03546C6
:104C70004FF0000820E05346002280212046CDF866
:104C8000009002F0C9F920B12020C4F88800032068
:104C9000D7E745B9B8F80000C0F30800216888627A
:104CA00008F1020803E02878216888626D1CB4F8D6
:104CB0005600401EA4F85600B4F856000028DAD179
:104CC0005346002240212046CDF8009002F0A4F97E
:104CD00020B12020C4F888000320B2E72020C4F8C7
:104CE00088000020ADE70220ABE7704700BFFEE779
:104CF0001448006820F00100124908604FF4403069
:104D00000860114880684863002008640E48C06845
:104D1000C8630E4848640C484068886300BF0C486C
:104D2000806C0128FBD10748006840F0010005496C
:104D3000086000BF0348006800F001000028F9D1B6
:104D40007047000000100052C80200241001E0016A
:104D5000001000502DE9F04704468846154600260D
:104D6000B1462746A5F12000C5B200BF36E01F4876
:104D7000006800681D490968098905FB016110F890
:104D800001A04FF0000923E00AF0010030B11848FB
:104D900041460268384600F025F905E014484146CE
:104DA0004268384600F01EF94FEA6A0A781C87B25A
:104DB000381B0E4909688988884205D1274608F1C1
:104DC00001001FFA80F806E009F101001FFA80F9DE
:104DD000B9F1080FD8DB00BF701C86B20348006829
:104DE0000089B042C3DCBDE8F087000094000024D5
:104DF000C80200242DE9F74F054616460024002777
:104E0000A146A84622E0344800680268324800689B
:104E10000089611C4843105C317888420ED12E48CD
:104E2000006801682C4800680289601C00FB0210C1
:104E300040787178884201D1A24608E0A01C84B273
:104E4000254800684089A04200DC00E0DBE700BFA5
:104E5000002739E02048006800681F49096809896F
:104E60000AFB010010F807B04FF0000926E00BF034
:104E7000010030B1194802684046019900F0B2F8CB
:104E800005E0164842684046019900F0ABF84FEA49
:104E90006B0B08F101001FFA80F8A8EB05000E4922
:104EA00009688988884205D1A8460198401C80B2CB
:104EB000019006E009F101001FFA80F9B9F1080F2D
:104EC000D5DB00BF781C87B2034800680089B84270
:104ED000C0DCBDE8FE8F000098000024C80200245A
:104EE0000149487470470000C80200242DE9FF41C1
:104EF00006460F4614461D460B48C07C30B9234673
:104F00002A460AA1684602F0F7F805E023462A4639
:104F100008A1684602F0F0F86A463946304600F0CB
:104F20000BF8BDE8FF810000C802002425302E2ABE
:104F300064000000252A640070B505460E4614463C
:104F40000AE0227831462846FFF704FF0648006849
:104F50008088284485B2641CB5F5F07F02DA207899
:104F60000028EED170BD00009400002470B5054605
:104F70000E46144622461448017814A002F0ACF8FC
:104F800011480078401C1049087019E020787F28EB
:104F90000BDC227831462846FFF7DCFE0F4800681C
:104FA0008088284485B2641C0AE02246314628469F
:104FB000FFF720FF0A4800688088284485B2A41CB7
:104FC00020780028E2D170BD9C00002474657874BC
:104FD0005B256868755D3A25730A0000940000241B
:104FE0009800002470B504460D4616463D4880687A
:104FF000D8B93C48407C40B93A48C068C5EB051177
:1050000004EB411140F821606BE03648407C0128F8
:1050100067D13448C168C4F58870401EC0EB0010E9
:1050200005EB401041F820605BE02E4880680128C5
:105030003CD12C48417C00222BA002F04DF829489D
:10504000407CA0B92749C968C5EB051204EB4212A0
:1050500002EB42028E52300C2249C968C5EB0512A0
:1050600004EB4212032303FB0211887039E01D4850
:10507000407C012835D11B48C268C4F58870401EA9
:10508000C0EB001005EB401000EB40001652310C55
:105090001448C268C4F58870401EC0EB001005EBD0
:1050A0004010032303FB002081701AE00D48407C70
:1050B00040B90C48C068C5EB051204EB421220F859
:1050C00012600EE00748407C01280AD10548C268FA
:1050D000C4F58870401EC0EB001005EB401022F8AC
:1050E000106070BDC80200246C63645F643A256878
:1050F00068752C64683A256868750A0010B5002048
:10510000FFF7EEFE0B4800F0B1F8012000F0F6F8D2
:10511000002000F0B1F84FF07F4000F00FF84FF0A2
:10512000FF3000F057F8FFF7E3FD00210248FFF7DA
:1051300051F910BD64000024E801002470B500247A
:10514000002100230022224DAD68022D0DD100F474
:105150007805290A00F47C456B09C0F3C40241EAD2
:10516000030515431A4E756030E0194DAD68032DE7
:1051700015D100F07F450DB9002401E04FF4004443
:1051800000F47805690A00F47845AB09C0F3C4025D
:1051900044EA01051D4315430D4E756016E00C4DA4
:1051A000AD68042D10D1050F2C0300F47005290BF8
:1051B00000F470452B0AC0F3031244EA01051D43B5
:1051C0001543034E756001E0014D686070BD00003D
:1051D000C802002470B50024002100230022224DC3
:1051E000AD68022D0DD100F47805290A00F47C4544
:1051F0006B09C0F3C40241EA030515431A4E35603A
:1052000030E0194DAD68032D15D100F07F450DB983
:10521000002401E04FF4004400F47805690A00F42A
:105220007845AB09C0F3C40244EA01051D431543A8
:105230000D4E356016E00C4DAD68042D10D1050FF4
:105240002C0300F47005290B00F470452B0AC0F301
:10525000031244EA01051D431543034E356001E086
:10526000014D286070BD0000C8020024014908609B
:1052700070470000940000244FF04041034AD16081
:10528000022191609174002111747047C8020024BA
:10529000134908608188142912D004DC0C2907D036
:1052A000102919D108E018290ED0202914D10FE0B7
:1052B0000C490D4A116010E00C490B4A11600CE0DA
:1052C0000B49094A116008E00A49074A116004E0E5
:1052D0000949054A116000E000BF00BF70470000A7
:1052E0009800002488000024940000247C000024FE
:1052F0007000002464000024580000240149C87490
:1053000070470000C8020024F0B58E880768FF6867
:10531000C7F30B473E44330406688436802707FBF7
:105320000266766806F47047066884364FF0800C93
:105330000CFB026677600E680768FF68C7F30B47CF
:105340003E44761C1E43076884370CFB02777E6060
:105350008E890768FF68C7F30A073E44330406686E
:105360008436802707FB0266B66806F47047066835
:1053700084360CFB0266B7608E680768FF68C7F367
:105380000A073E44761C46EA0307066884360CFB8F
:105390000266B76006688436802707FB02663669B6
:1053A00026F00707066884360CFB026637610F6932
:1053B000066884360CFB026637613126765C330260
:1053C0003226765C34040E7E350691F830601E433A
:1053D000264346EA0507066884360CFB0266B76179
:1053E00006688436802707FB0266766926F0FF0789
:1053F000066884360CFB026677614F69066884365E
:105400000CFB0266776106688436802707FB02661C
:10541000F76940F20776B743066884360CFB0266EC
:10542000F761D1E907763743066884360CFB0266DC
:10543000F7614F6A066884360CFB0266B7620E6934
:105440000EB9042313E00E69012E01D103230EE0EF
:105450000E69042E08D00E69022E05D00E69032EA7
:1054600002D00E69072E01D1022300E00123066855
:105470008436802707FB0266F66A06F0E027066896
:1054800084364FF0800C0CFB0266F762D1E900769F
:10549000F61B5E43F71D0E8D5E4347EA064706681E
:1054A00084360CFB0266F76206688436802707FBA9
:1054B0000266366BF70AFF02066884360CFB02664A
:1054C0003763CF6A066884360CFB0266376306686A
:1054D0008436D701F65946F00107066884364FEA4C
:1054E000C21C46F80C70F0BD1FB500200090019062
:1054F00002900390FCF786FB01208DF8000000204D
:105500008DF80100019018208DF8080000208DF81A
:1055100009008DF80A008DF80B008DF80C008DF84D
:105520000D0001208DF80E0000208DF80F00684658
:10553000FCF73AFB0420FCF77BFB1FBD10B50848C5
:10554000084908604FF440304860022105488160F6
:105550000021C160FBF7C6FA08B1FBF783F910BD63
:1055600000100052A400002400B587B01C2168463A
:10557000FAF7FCFE19481A4908600020486001212A
:10558000174881600821C1601021016140214161FB
:105590004FF4C07181610021C1614FF4006101626B
:1055A0004900416249008162022000900920019077
:1055B0000620029008200390032004900590069096
:1055C00069460748FEF70EFC08B1FBF74BF90549A1
:1055D000034800F0FDFA07B000BD00004041005252
:1055E0000C010024DC02002400B587B0142102A8BD
:1055F000FAF7BCFE00BF4748006840F0100045497C
:1056000008600846006800F01000019000BF00BF6D
:1056100000BF0846006840F48070086008460068D3
:1056200000F48070019000BF00BF00BF0846006812
:1056300040F0200008600846006800F0200001905B
:1056400000BF00BF00BF0846006840F0800008604F
:105650000846006800F08000019000BF00BF00BF56
:105660000846006840F0010008600846006800F045
:105670000100019000BF00BF00BF0846006840F075
:10568000400008600846006800F04000019000BF3C
:1056900000BF00BF0846006840F0080008600846E8
:1056A000006800F00800019000BF00BF01224FF425
:1056B00010611948FCF74CF8012210211748FCF73B
:1056C00047F8002208211648FCF742F84FF4106012
:1056D00002901120039000200490059002A90E482A
:1056E000FBF730FF1020029001200390049000206F
:1056F000059002A90948FBF725FF08200290012028
:10570000039004900020059002A90548FBF71AFFBA
:1057100007B000BDE044025800200258001C0258A7
:105720000018025800B58DB034216846FAF71EFE05
:105730002B482C49086000204860002129488160DE
:10574000C1600161416181612B21C1610C21016254
:1057500040F20B2141624FF48E71816240F21321BD
:10576000C1624FF492710163002180F8341080F817
:10577000351080F83610FCF794F808B1FBF772F892
:10578000002000904FF4F0700190002002904FF440
:105790008870039002200490FF200590002006905E
:1057A0004FF480600790052008904FF0404009902A
:1057B0004FF4F0700A904FF488700B9000208DF831
:1057C000300000218DF831108DF83210002269462A
:1057D0000448FCF737F808B1FBF744F80DB000BDFA
:1057E000001000504001002400B58FB000200B9045
:1057F0000C900D900E90089009900A901C2101A821
:10580000FAF7B4FD204821490860EF2048600021E4
:105810001E48816040F2F311C16000210161816185
:10582000FEF7D0FB08B1FBF71DF84FF480500B904A
:105830000BA91648FEF716FC08B1FBF713F813483E
:10584000FEF790FD08B1FBF70DF8002008900A90D4
:1058500008A90E48FEF750FB08B1FBF703F86020DB
:10586000019032200290002003900590002201A9AF
:105870000648FEF7BFFC08B1FAF7F4FF0348FEF74D
:105880008BFC0FB000BD000000180040E8010024B0
:1058900010B51848184908604FF4E13048600021FD
:1058A00015488160C16001610C2141610021816165
:1058B000C1610162416200200F4988620846FFF71A
:1058C00020F908B1FAF7CEFF00210B48FEF78CFE55
:1058D00008B1FAF7C7FF00210748FEF756FE08B1E6
:1058E000FAF7C0FF0448FEF727FE08B1FAF7BAFF3F
:1058F00010BD0000001001403402002400BFFEE78C
:1059000000BFFEE7704700002DE9F04104460E4657
:1059100000275548006800F00300032802D1012049
:10592000BDE8F08150482838006820F080604E497A
:1059300028390860FBF718FF054606E0FBF714FF5F
:10594000401B022801D90320EAE7474828380068AD
:10595000C0F3C0600028F1D100BF4348006820F4C4
:105960007C30216840EA01303F490860A088401E31
:10597000C0F30800A168491E4FF47E4202EA4121AB
:105980000843A189491ED20102EA01410843217C52
:10599000491E120202EA01610843334910310860CE
:1059A00000BF3148001D006820F0C0006169084355
:1059B0002D49091D08600846006820F02000A169F3
:1059C00008432949091D08600846006820F01000B6
:1059D00008602548143000684FF6F8718843E16983
:1059E00040EAC1002049143108601F48001D0068CA
:1059F00040F010001C49091D08602EB908460068D7
:105A000040F40020086012E0012E08D11648001D65
:105A1000006840F480101449091D086007E012482E
:105A2000001D006840F400100F49091D08600E4871
:105A30002838006840F080600B4928390860FBF77F
:105A400093FE054606E0FBF78FFE401B022801D9B6
:105A5000032065E7044828380068C0F3C0600028C8
:105A6000F1D038465CE70000284402582DE9F041A7
:105A700004460E4600275548006800F0030003283E
:105A800002D10120BDE8F08150482838006820F09C
:105A900080504E4928390860FBF766FE054606E04F
:105AA000FBF762FE401B022801D90320EAE74748C2
:105AB00028380068C0F340700028F1D100BF434887
:105AC000006820F07C70218840EA01503F4908605E
:105AD000A088401EC0F30800A168491E4FF47E4212
